{"abi":[{"type":"constructor","inputs":[],"stateMutability":"nonpayable"},{"type":"function","name":"admin","inputs":[],"outputs":[{"name":"","type":"address","internalType":"address"}],"stateMutability":"view"},{"type":"function","name":"apyRate","inputs":[],"outputs":[{"name":"","type":"uint256","internalType":"uint256"}],"stateMutability":"view"},{"type":"function","name":"calculateReward","inputs":[{"name":"amount","type":"uint256","internalType":"uint256"},{"name":"tenure","type":"uint256","internalType":"uint256"}],"outputs":[{"name":"","type":"uint256","internalType":"uint256"}],"stateMutability":"view"},{"type":"function","name":"getStake","inputs":[{"name":"staker","type":"address","internalType":"address"}],"outputs":[{"name":"","type":"tuple","internalType":"struct Staking.Stake","components":[{"name":"amount","type":"uint256","internalType":"uint256"},{"name":"startTime","type":"uint256","internalType":"uint256"},{"name":"reward","type":"uint256","internalType":"uint256"},{"name":"tenure","type":"uint256","internalType":"uint256"}]}],"stateMutability":"view"},{"type":"function","name":"penaltyRate","inputs":[],"outputs":[{"name":"","type":"uint256","internalType":"uint256"}],"stateMutability":"view"},{"type":"function","name":"setAPYRate","inputs":[{"name":"_apyRate","type":"uint256","internalType":"uint256"}],"outputs":[],"stateMutability":"nonpayable"},{"type":"function","name":"setPenaltyRate","inputs":[{"name":"_penaltyRate","type":"uint256","internalType":"uint256"}],"outputs":[],"stateMutability":"nonpayable"},{"type":"function","name":"stake","inputs":[{"name":"amount","type":"uint256","internalType":"uint256"},{"name":"tenure","type":"uint256","internalType":"uint256"}],"outputs":[],"stateMutability":"nonpayable"},{"type":"function","name":"stakes","inputs":[{"name":"","type":"address","internalType":"address"}],"outputs":[{"name":"amount","type":"uint256","internalType":"uint256"},{"name":"startTime","type":"uint256","internalType":"uint256"},{"name":"reward","type":"uint256","internalType":"uint256"},{"name":"tenure","type":"uint256","internalType":"uint256"}],"stateMutability":"view"},{"type":"function","name":"unstake","inputs":[],"outputs":[],"stateMutability":"nonpayable"}],"bytecode":{"object":"0x6080604052600a600155600560025534801561001a57600080fd5b50600080546001600160a01b031916331790556106258061003c6000396000f3fe608060405234801561001057600080fd5b506004361061009e5760003560e01c80637b0472f0116100665780637b0472f0146101835780637cbf3a6214610196578063a1bab4471461019f578063d6b7494f146101b2578063f851a440146101bb57600080fd5b806313ed0846146100a357806316934fc4146100c95780632def662014610120578063683a2eb81461012a5780637a7664601461013d575b600080fd5b6100b66100b136600461050f565b6101e6565b6040519081526020015b60405180910390f35b6101006100d7366004610531565b600360208190526000918252604090912080546001820154600283015492909301549092919084565b6040805194855260208501939093529183015260608201526080016100c0565b610128610219565b005b610128610138366004610561565b61034b565b61015061014b366004610531565b61039b565b6040516100c091908151815260208083015190820152604080830151908201526060918201519181019190915260800190565b61012861019136600461050f565b610411565b6100b660015481565b6101286101ad366004610561565b6104bf565b6100b660025481565b6000546101ce906001600160a01b031681565b6040516001600160a01b0390911681526020016100c0565b600063bbf81e0082600154856101fc9190610590565b6102069190610590565b61021091906105a7565b90505b92915050565b336000908152600360208181526040928390208351608081018552815480825260018301549382019390935260028201549481019490945290910154606083015261029d5760405162461bcd60e51b815260206004820152600f60248201526e4e6f20616374697665207374616b6560881b60448201526064015b60405180910390fd5b6000816060015182602001516102b391906105c9565b42106102c05760006102db565b60025482516064916102d191610590565b6102db91906105a7565b9050600082604001518284600001516102f491906105dc565b6102fe91906105c9565b505060408051608081018252600080825260208083018281528385018381526060850184815233855260039384905295909320935184555160018401559051600283015591519101555050565b6000546001600160a01b031633146103965760405162461bcd60e51b815260206004820152600e60248201526d139bdd08185d5d1a1bdc9a5e995960921b6044820152606401610294565b600155565b6103c66040518060800160405280600081526020016000815260200160008152602001600081525090565b506001600160a01b0316600090815260036020818152604092839020835160808101855281548152600182015492810192909252600281015493820193909352910154606082015290565b33600090815260036020526040902054156104605760405162461bcd60e51b815260206004820152600f60248201526e416c7265616479207374616b696e6760881b6044820152606401610294565b604051806080016040528083815260200142815260200161048184846101e6565b815260209081019290925233600090815260038084526040918290208351815593830151600185015590820151600284015560609091015191015550565b6000546001600160a01b0316331461050a5760405162461bcd60e51b815260206004820152600e60248201526d139bdd08185d5d1a1bdc9a5e995960921b6044820152606401610294565b600255565b6000806040838503121561052257600080fd5b50508035926020909101359150565b60006020828403121561054357600080fd5b81356001600160a01b038116811461055a57600080fd5b9392505050565b60006020828403121561057357600080fd5b5035919050565b634e487b7160e01b600052601160045260246000fd5b80820281158282048414176102135761021361057a565b6000826105c457634e487b7160e01b600052601260045260246000fd5b500490565b808201808211156102135761021361057a565b818103818111156102135761021361057a56fea26469706673582212200e963b7223414444f2884f156233d0256a48fd85282d0fce19c77bf5e4f902dc64736f6c63430008130033","linkReferences":{}},"methodIdentifiers":{"admin()":"f851a440","apyRate()":"7cbf3a62","calculateReward(uint256,uint256)":"13ed0846","getStake(address)":"7a766460","penaltyRate()":"d6b7494f","setAPYRate(uint256)":"683a2eb8","setPenaltyRate(uint256)":"a1bab447","stake(uint256,uint256)":"7b0472f0","stakes(address)":"16934fc4","unstake()":"2def6620"},"id":20}